:1000000000060020B3100000210D0000210D0000AB
:1000100000000000000000000000000000000000E0
:10002000000000000000000000000000210D0000A2
:100030000000000000000000210D0000210D000064
:10004000210D0000210D0000210D0000210D0000F8
:10005000210D0000210D0000210D0000210D0000E8
:10006000210D0000210D0000210D0000210D0000D8
:10007000210D0000210D0000210D0000210D0000C8
:10008000210D0000210D0000210D0000210D0000B8
:10009000210D0000210D0000210D0000210D0000A8
:1000A000210D0000210D0000210D0000210D000098
:1000B000210D0000210D0000210D0000210D000088
:1000C000210D0000210D0000210D0000210D000078
:1000D000210D0000210D0000210D0000210D000068
:1000E000210D0000210D0000210D0000210D000058
:1000F000210D0000210D0000210D0000210D000048
:10010000210D0000210D0000210D0000210D000037
:10011000210D0000210D0000210D0000210D000027
:10012000210D0000210D0000210D0000210D000017
:10013000210D0000210D0000210D0000210D000007
:10014000210D0000210D0000210D0000210D0000F7
:10015000210D0000210D0000210D0000210D0000E7
:10016000210D0000210D0000210D0000210D0000D7
:10017000210D0000210D0000210D0000210D0000C7
:10018000210D0000210D0000210D0000210D0000B7
:10019000210D0000210D0000210D0000210D0000A7
:1001A000210D0000210D0000210D0000210D000097
:1001B000210D0000210D0000210D0000210D000087
:1001C000210D0000210D0000210D0000210D000077
:1001D000210D0000210D000000F002F800F02EF8C3
:1001E0000CA030C8083824182D18671EA246AB464C
:1001F00054465D46AC4201D100F020F87E460F3EE9
:10020000B6460FCC0126334200D0FB1A3343A24638
:10021000AB461847E83000000831000000230024F6
:1002200000250026103A01D378C1FBD8520700D32D
:1002300030C100D50B6070471FB51FBD054885460E
:1002400003B401F0D8F903BC00F03DF900F045F922
:1002500001F0E0FA000600207046F047704710B544
:10026000202A04DB0146203A9140002010BD914035
:1002700020239C1A0346E3401943904010BD10B55B
:10028000202A04DB0846203AD040002110BD0B464E
:100290002024D340D040A21A91400843194610BDF3
:1002A0004343514330B55C18010C130C0D4692B218
:1002B0005D4380B251432C19054655430A0C09048D
:1002C0004D1962415843010C00044019514130BDA1
:1002D000FEB5054610460C46184373D0AE468C4614
:1002E0000020AD1A01469C4167D3664600270124D1
:1002F0003D46B61A9D4102D313463A46212465462F
:1003000076462F04360C3E432D0CB61A9D4104D37D
:10031000150C1B042B4312041034654676462F0639
:10032000360A3E432D0AB61A9D4104D3150E1B0210
:100330002B4312020834654676462F0736093E43A2
:100340002D09B61A9D4104D3150F1B012B43120131
:10035000241D65467646AF07B6083E43AD08B61A7B
:100360009D4104D3950F9B002B439200A41C65462E
:100370007646EF0776083E436D08B61A9D411AD3BC
:1003800092185B41641C16E00018764665464941A8
:10039000B71A9D410191009009D36046B11A984166
:1003A0008E468446009801990025401C6941DD076E
:1003B00052082A435B08641EE6D57246634603B0C2
:1003C000F0BDFFE700200146C046C0462A4623464E
:1003D000F5E701E004C0091F0429FBD28B0701D512
:1003E0000280801CC90700D00270704700290BD022
:1003F000C30702D00270401C491E022904D38307A0
:1004000002D50280801C891EE3E70022EEE700226D
:10041000DFE770477047704710B501469E24000221
:10042000CA15A307002A02D01843002A04DBA21A27
:10043000002A0CDDD04010BD1206120E01D1400082
:100440004008A21A03D4D04040420028F3DDFF2226
:1004500048001206904201D9002010BDC817C043C1
:10046000584010BD704770B58D180478401CA20725
:10047000920F01D10278401C231106D10378401C51
:1004800003E00678401C0E70491C521EF9D1002B67
:1004900015D002780C2634408A1A401C0C2C03D04C
:1004A000A401121B9B1C08E004782402121B401CB0
:1004B000F8E714780C70491C521C5B1EF9D5A94250
:1004C000D3D3002070BD41F6E060C2F2000042F2DA
:1004D0000001C2F20001FFF7AFBE80B501F008FED7
:1004E00080BC01BC864601F01FBD1F2101400122D6
:1004F0008A40000F0C21014040F20420C4F20000A9
:100500000B5893430B50704710B571460446C8070B
:100510001AD1601C12D042F6C050C0F20000083060
:1005200040F24C210322D2438258A24204D00C391B
:100530000C300029F6D101E0006828B943F21B20F5
:10054000C0F2000001F032F92046FFF7CEFF10BCE8
:1005500001BC86467046714672467346F4468EF379
:10056000008874471F21014001228A40000F0C219E
:10057000014040F20420C4F200000B5813430B501A
:10058000704710B571460446C8071AD1601C12D0D6
:1005900042F6C050C0F20000083040F24C21032265
:1005A000D2438258A24204D00C390C300029F6D133
:1005B00001E0006828B943F21B20C0F2000001F0FE
:1005C000F5F82046FFF7CEFF10BC01BC864670460A
:1005D000714672467346F4468EF300887447F0B550
:1005E00084B001273A0440F20025C4F200052B6CC8
:1005F00013432B642B6846F2FF06CFF6DB7668B117
:10060000042213432B602B6D1022134212D1334668
:100610005B1C0FD02C6D1442FAD00BE00122134367
:100620002B602B6D134205D133465B1C02D02C6D21
:100630001442FAD04CF60022CFF691628A1840F2AA
:10064000022440F60063C0F227739A4274D80190E6
:1006500049F20043CFF62353CB1846F60044C0F2CC
:10066000DC240020A34200D3074643F20063C0F21B
:100670006E1303269A42344600D33C46009402256A
:100680009A4200D33D46A940C34307460290B01E9C
:10069000042803962AD841F60030C0F2B700B0FB18
:1006A000F6F0420002263046504342F60004CFF6F0
:1006B000472404194EF60025C0F23265AC420CD82E
:1006C000451A0C1A884200D825469D4205D20020C2
:1006D000002D2B460296039F05D0761C40F2022087
:1006E0008642E0D302E003460296039F039E761CF7
:1006F000212ECCD178024FF60061CFF6FF71401861
:10070000009B9903019A1143029CA21E0A430243D3
:1007100040F20025C4F200052A64581C784341F6D3
:100720000031C0F2B701B1FBF0F06043400046F287
:10073000FF06CFF6DB7616E00321C9436958FE3485
:10074000214208D04CF20E210843286446F60040AE
:10075000C0F2DC2007E044F20E410843286449F26D
:100760000000C0F2D0302A6D042102E0761C02D0D5
:100770002A6D0A42FAD004B0F0BD40F20021C4F262
:1007800000010A6802430A6070470000F0B540F2B9
:100790000820C4F20000036802221340846B052184
:1007A0000D0400212C421FD1A10341F60031C0F2FB
:1007B000B70119D4A50B03262E4042F67C55C0F292
:1007C0000005AD5D660A1F2737407E1C6E4364003E
:1007D00040F2FE3525404CF2C064C0F22D046C435B
:1007E0006118B1FBF6F1890040F64C54C2F20004E6
:1007F0002160856807242C40022C1DD0012C11D1CA
:1008000048F2000141F20014C4F2040473B9036811
:1008100013430360236804689443046080221342F6
:1008200008D109E0A10017A2515805E022688023F1
:100830001A4201D047F6005180690F220240501C35
:10084000B1FBF0F040F65451C2F2000108604AF2E8
:100850002011C0F20701411844F24022C0F20F02F9
:10086000B1FBF2F140F2E072C2F200021160F0BCA2
:1008700002BC8E46714672467346F4468EF300887B
:100880007447C046001BB700008000000000000055
:100890001027000000000000006CDC0200000000D7
:1008A000001BB70080B500F083FC40F65450C2F244
:1008B0000000006880BC02BC8E46714672467346DA
:1008C000F4468EF30088744740F20020C4F2000022
:1008D000006801210140494241F60030C0F2B700F2
:1008E0000840714672467346F4468EF3008874479A
:1008F00040F20020C4F200000068810348F20000CA
:100900000840714672467346F4468EF30088744779
:10091000810ACAB2002192B141091F230B409A40BB
:10092000000C0C21014042F66C50C0F2000040580F
:1009300040F22021C4F2000141581140D94008463C
:10094000714672467346F4468EF300887447000081
:1009500010B501464FF6F070C7F6FF70081803286F
:1009600012D8810001A251188F46C04600F006B887
:1009700000F025B800F02AB800F02FB840F2182097
:10098000C4F2000001682EE04A0E07231A4000203E
:100990005AB3080D1F240440A240880E0C210140C8
:1009A00042F65C50C0F20000405840F21821C4F2F8
:1009B00000014018D94340581040E04015E040F293
:1009C0001820C4F20000006841080CE040F2182032
:1009D000C4F200000068010A05E040F21820C4F2E9
:1009E00000000068410A0120084010BC02BC8E468D
:1009F000714672467346F4468EF30088744780B59C
:100A000000F0D6FB40F65450C2F20000006840F2FD
:100A10003421C4F20001096807220A40D04080BC9A
:100A200002BC8E46714672467346F4468EF30088C9
:100A3000744780B500F0BCFB40F65450C2F2000091
:100A4000006840F23421C4F2000109680909072254
:100A50000A40D04080BC02BC8E4671467246734646
:100A6000F4468EF30088744710B540F24020C4F27B
:100A70000000016805200204002011421FD18803F4
:100A800041F60030C0F2B70019D48A0B032313409B
:100A900042F67C52C0F20002D25C4B0A1F241C407A
:100AA000631C5343490040F2FE320A404CF2C061DD
:100AB000C0F22D0151430818B0FBF3F0800010BCC8
:100AC00002BC8E46714672467346F4468EF3008829
:100AD00074474EF61050CEF2000001680422914394
:100AE000016040F20020C4F20000016880229143BE
:100AF000016030BF70474EF61050CEF20000016822
:100B000004220A43026040F20020C4F2000001689F
:100B100080220A43026030BF7047F0B581B040F2D6
:100B20000025C4F200052E6D0321C943695840F227
:100B300000320A4049F20001C0F2D031884200D9A7
:100B40008AB146F60041C0F2DC21884203D940F266
:100B500000139A4207D043F20061C0F26E1188423E
:100B600000D80846014628680427384328602A6DC3
:100B70001020024208D146F2FF02CFF6DB72521C6F
:100B800002D02B6D0342FAD02869072202432A6162
:100B9000286A0F22904328622A6D0120024205D163
:100BA000C004FFF71CFD04462E6D03E00020FFF794
:100BB00016FD04460220002100F008F8F00602D4D9
:100BC0002868B8432860204601B0F0BDF0B581B078
:100BD00040F20024C4F20004266D226804252A4352
:100BE000226010221640236D134208D146F2FF0303
:100BF000CFF6DB735B1C02D0276D1742FAD0226957
:100C000007231A432261226A0F27BA430A4322624A
:100C1000216999430143216100F0CAFA16B920689D
:100C2000A843206001B0F0BDF0B50023DC43830A87
:100C3000DDB240F21023C4F200038DB146091F2734
:100C40003740BD406540060C0C27374042F66C56D5
:100C5000C0F20006F659F61837692F40174337617E
:100C6000450E07222A4082B1050D1F262E40B240B4
:100C70006240800E0C24044042F65C50C0F200003A
:100C80000059C45814400C43C450F0BD70B57346AD
:100C900014460D460646D8071AD1701C12D042F6EB
:100CA000C050C0F20000083040F24C210322D24371
:100CB0008258B24204D00C390C300029F6D101E040
:100CC000006828B943F21B20C0F2000000F06EFD5E
:100CD000304629462246FFF7A7FF70BC01BC864676
:100CE0007046714672467346F4468EF30088744728
:100CF00010B540F25022C4F20002116801400123F5
:100D000081420AD046F2FF04CFF6DB740021641C56
:100D100004D0116801408142F8D11946084610BD3F
:100D2000FEE7F0B500231C460125A5400D4207D083
:100D300015469D4003269E400768B7432F43076032
:100D40009B1C641C102CEFD1F0BDF0B581B00127C5
:100D50003C07FFF781FA41F20005C4F2040541F2B5
:100D60000006C5F204062042284600D03046009016
:100D70003F04FFF771FA204204D0009A70683842AD
:100D8000FCD003E0009A68683842FCD0D06B0421A4
:100D90000143D16301B0F0BDF0B581B00446012537
:100DA0002E07FFF759FA304204D041F20001C5F294
:100DB000040103E041F20001C4F204014869284043
:100DC0000090E0618B6907273B40E3600B691E0DD3
:100DD0000F231E4041F67860C2F2000006600E69E3
:100DE000360C1E4041F69060C2F2000006600E69AB
:100DF000360B2E4041F67060C2F2000006600D69AD
:100E00002D0A1D4041F68860C2F2000005600D69A0
:100E10002D090326354041F66460C2F200000560EA
:100E20000D691D4041F67C60C2F200000560CD688E
:100E30002D0D354041F66866C2F200063560CD687A
:100E4000280C184041F68065C2F200052860C86889
:100E5000000B384041F66C62C2F200021060C868B4
:100E6000000A184041F68462C2F200021060C868AD
:100E70000009384041F67467C2F200073860C8685C
:100E8000184041F68C61C2F20001086041F67860BA
:100E9000C2F2000000680A23584341F69062C2F291
:100EA00000021268101840F2D0728018206041F6DB
:100EB0007060C2F200000068584341F68862C2F2D6
:100EC000000212688018606041F66460C2F200009F
:100ED0000068584341F67C62C2F200021268801832
:100EE000A060306858432A6885182561009840B989
:100EF000152D04D302202062143D256101E001205C
:100F0000206241F66C60C2F200000068584341F66E
:100F10008462C2F20002126880183A685A43096873
:100F200051186061A16101B0F0BDB0B50446012067
:100F30000507FFF791F9284204D041F20000C5F2FD
:100F4000040003E041F20000C4F2040041F2573112
:100F5000CAF2EB5101600268012A03D00160016806
:100F60000129FCD12CB12046B0BC02BC8E4600F059
:100F700001B8B0BDF0B585B0044601200190050769
:100F800041F20406C4F20406301F049041F2040743
:100F9000C5F20407381F0090FFF75EF90395284259
:100FA00001D0009804902046002C00D17FE00198E9
:100FB0000504FFF751F90399084204D0049B3868EF
:100FC0002842FCD003E0049B30682842FCD0E16951
:100FD000586919B101990843586108E0019988439B
:100FE0005861206A022802D1206914302061E0682B
:100FF0000493986121690A200294B1FBF0F2130571
:101000004243891A090419436269B2FBF0F31C03D5
:101010000C434343D11A09022143029A9269B2FB5D
:10102000F0F304465C43121B0A431901114301917A
:10103000029C21684FF63002CFF6FF728918B1FB8F
:10104000F0F203465343C91A090412050A436168C2
:10105000B1FBF0F31C0314434343C91A09022143B3
:10106000029A9268B2FBF0F35843101A08431C012D
:101070000443FFF7F1F80399084203D03868284287
:10108000FCD002E030682842FCD004980461044699
:10109000FFF7E2F80399084204D001993868284222
:1010A000FCD003E0019930682842FCD0E16005B033
:1010B000F0BD80B540F20010C4F20000592101607B
:1010C000162101608821016001680029F6D0DB212A
:1010D000C94345F6A52242500021016000F088F87E
:1010E000FFF77AF8FEE740F20010C4F2000000219A
:1010F00001607046714672467346F4468EF300886E
:1011000074474FF6FF71C0F2FF01014001228A408F
:10111000000E40F20801C4F20001435893434350CB
:101120007046714672467346F4468EF300887447E3
:1011300010B571460446C80717D1601C0FD042F69F
:10114000C050C0F2000040F24C210268A24204D01C
:101150000C390C300029F8D101E0806828B943F23D
:101160001B20C0F2000000F021FB20460BF0A0FF86
:1011700010BC01BC86467046714672467346F44602
:101180008EF30088744740F20010C4F20000592129
:101190000160162101608821016001680029F6D0F4
:1011A0007046714672467346F4468EF30088744763
:1011B00080B50BF079FF40F64C51C2F20001086097
:1011C0000BF052FF40F65451C2F2000108604AF29F
:1011D0002011C0F20701401844F24021C0F20F0173
:1011E000B0FBF1F040F2E071C2F20001086080BD96
:1011F00070B54EF60850CEF2000040F20001C0F289
:1012000000010160D021032343501F22D4434DF23B
:101210000005C0F200052E462640D422865041F239
:101220000006C0F20006AD196D1E25401D43D823EF
:10123000C5500424445040F20004C1F2010484501B
:101240004FF6E174C1F20704C4500524445047F638
:101250000065C0F28005855047F6E375C0F2800551
:10126000C5500625455042F20005C3F200058550E1
:1012700047F6E175C3F20105C55007254550210722
:1012800081504FF6E171C5F6FF71C150C8220121AE
:101290008150826808239A43826040F20002C0F2C3
:1012A000FA5242604FF6FC60CFF6FF700246C3323E
:1012B0004EF28033CEF200031A6058600020C24321
:1012C0009A60DA604FF20003C4F202031A605A60B7
:1012D000941E9C60DA601A615A619A611A620C224B
:1012E000521E0C4694405D6A25435D62012AF7D880
:1012F0000A04996A914200D170BD40F20011C4F213
:10130000000159230B6016230B6088230B600B68C8
:10131000002BF6D04CF20003C4F2000311241C6031
:1013200040F60004C0F220045C60D860012018611F
:1013300018690028FCD19868401C0BD19A602120C4
:10134000D8600120186118690028FCD1F720C0433B
:1013500001220A50FEE7000010B50446002041F2C9
:10136000FF01C4F205018C4212DC40F20001C4F21C
:1013700005018C4228D040F20011C4F205018C42D4
:1013800027D041F20001C4F205018C4217D039E0A8
:1013900041F20011C4F205018C420BD041F2000170
:1013A000C5F205018C420AD041F20011C5F20501D7
:1013B0008C4227D140F20500C5F640700DE040F2A6
:1013C0000400C5F6007008E040F20200C5F6806037
:1013D00003E040F20300C5F6C0600BF059FE02289E
:1013E0000DD140F20010044340F20010C4F2050099
:1013F000844208D110BC01BC86460BF04DBE800073
:1014000003A1085810BD10BC01BC86460BF048BEB5
:10141000001BB7000080000000000000000000007A
:10142000000000001027000000000000001BB700B3
:101430000020EFF30581B9B140F65052C2F200022C
:1014400011684B1C10D0480240F6D853C2F200037A
:10145000185810600C20484340F67852C2F200023F
:10146000131810589860481C714672467346F4462B
:101470008EF30088744710B5411EEFF305820020FB
:10148000072919D8C2B10C224A4340F67853C2F258
:1014900000039A189368083273B100201060480264
:1014A00040F65052C2F20002136840F6D854C2F21D
:1014B000000423501160012010BC02BC8E4671460E
:1014C00072467346F4468EF300887447B0B5002028
:1014D000EFF3058151B340F6D854C2F20004012065
:1014E00040F67851C2F2000140F200220023A51814
:1014F0000D604C608B6020600C31401C09282C462C
:10150000F4D1D84340F6006140F6D852C2F200024E
:10151000505040F65050C2F20000036082F30B8836
:1015200082F30988022080F314880120B0BC02BC39
:101530008E46714672467346F4468EF300887447B1
:1015400001460020EFF30582CAB10223EFF31482B3
:101550001A40491E072912D88AB10C224A4340F684
:101560007851C2F200018A1811460831936833B1EC
:10157000506880F30B88086880F309880120714661
:1015800072467346F4468EF300887447B0B5014640
:101590000020EFF3058222B30223EFF314821A40F6
:1015A000491E07291DD8E2B10C224A4340F6785360
:1015B000C2F200039D1829460831AC688CB1EFF3E4
:1015C00009846D68AC420CD39A58944209D80C60D7
:1015D00040F6D850C2F2000080F30B8880F30988EF
:1015E0000120B0BC02BC8E46714672467346F4467A
:1015F0008EF30088744710B54EF60850CEF2000006
:101600000168762240F20063C2F2000310C910C3E1
:10161000521EFBD140F20061C2F20001016010BC19
:1016200001BC864600F065BDF0B583B003460020DE
:10163000002B6BD0002969D0029159690D46463DB7
:10164000882D63D803250D400020461B6E41C82716
:101650004F40019217430125002F009500D13D46D0
:101660002E403025754343F20C06C0F20006751972
:101670001E69B600AF599D6840F610666E435D68FE
:101680003C246C431D682C19A419DB6845F28016B4
:10169000C0F201067343E318DB194AF68064CFF603
:1016A000FE741B19CE2912D1019A32B942F27F245D
:1016B000C0F23104A342019A28D8012A0AD14DF27E
:1016C000FF04C0F22F04A342019A1FD802E0472969
:1016D000019A18DB1120C043471CC82900DC38469A
:1016E00002B1384640F26D144C434A1ED517AD0F77
:1016F00052199210A218101849F63242CFF6FF7212
:10170000801846439B1902980360009803B0F0BD0F
:1017100010B541F6DC54C2F200042068401C04D12C
:1017200005A012A1512200F02DFC00F093FA2068D0
:10173000401C206010BDC046637269746963616CAF
:101740005F73656374696F6E5F7265656E747261F5
:101750006E63795F636F756E746572203C205549C6
:101760004E5433325F4D4158000000002E5C6D62D4
:1017700065642D6F735C706C6174666F726D5C6D07
:101780006265645F637269746963616C2E630000F3
:1017900041F6DC50C2F20000016821B10168491E27
:1017A0000160006800B1704700F06ABA83B070B59C
:1017B00081B07546044605A80EC041F6E856C2F24F
:1017C00000063078012804D101B070BC01BC03B020
:1017D000004740F20010C8F2FF0000212A4600F046
:1017E000C7FA06A000F01EFD0125357005A900917D
:1017F000204600F07CFC284600F00CF8466174613D
:101800006C2052756E2D74696D65206572726F72F1
:101810000000000080B508B100F0E0FBFEE7F0B585
:101820008FB072460D460746D00709D10020C64347
:1018300078684168A9424BD880684018A84247D9C7
:10184000FFF766FF099501200B90034602900026E2
:101850000C9640F65450C2F2000000680A90B86836
:101860000169426989180D91006880180E900197EE
:1018700040F65C54C2F200041C4309A8A047049639
:10188000039505960696B86801694269891807911B
:1018900080688018089003A8A04707460995029819
:1018A0000B900C9640F65450C2F2000000680A906B
:1018B000019880680169426989180D914068801813
:1018C0000E9009A8A047F64307B93E46FFF760FF10
:1018D00030460FB0F0BC02BC8E467146724673466D
:1018E000F4468EF3008874470020714672467346B2
:1018F000F4468EF3008874477146CA07011D02B191
:10190000014608680068714672467346F4468EF3D5
:101910000088744710B5734602460020C043DB07B9
:1019200015D153685A689C68A2188A4226D91A6948
:10193000521E002A22DBDB68D4001B191C688C4273
:101940001BD9C4001B19521E002AF7DA16E01368CF
:101950005A689C68A2188A4210D91A69521E002A35
:101960000CDBDB68D4001B191C688C4205D9C40051
:101970001B19521E002AF7DA00E0586810BC02BC9E
:101980008E46714672467346F4468EF3008874475D
:101990007146CA07011D02B1014608688068714698
:1019A00072467346F4468EF3008874477146CA0740
:1019B000011D02B1014608684068714672467346CF
:1019C000F4468EF30088744780B500F07DF800205F
:1019D00080BC02BC8E46714672467346F4468EF356
:1019E00000887447F0B58FB074460D46E10713D1F7
:1019F000E9184F1E0021CE43AF4259D344686168B5
:101A0000A94255D8A4686418AC4251D9AF4203D05A
:101A1000B9424DD8BC424BD9019200930746FFF71B
:101A200077FE0995022002900B9000260C9640F656
:101A30005450C2F2000000680A90B8680169426917
:101A400089180D91006880180E90012040F65C54B2
:101A5000C2F20004044309A8A0470098049003952B
:101A6000019805900696B868416902695218079274
:101A7000C0684018089003A8A047019009950298F3
:101A80000B900C9640F65450C2F2000000680A9089
:101A9000B8680169426989180D91406880180E90F4
:101AA00009A8A0470198F64300B90646FFF770FE63
:101AB00030460FB0F0BC02BC8E467146724673468B
:101AC000F4468EF30088744742F69851C0F2000144
:101AD00042F68052C0F2000242F6AC53C0F200035C
:101AE0000AC00260704743F2CC20C0F20000704789
:101AF00010B50B4602460068411C10D09360D168B7
:101B0000032902D3CC1E022C0AD20321042403B1E0
:101B10002146D16010BC04BC964600F05EBB10BDEF
:101B20000629F7D10621002BF4D140F2C03140F252
:101B3000C0323C328300134082080A4044F6000160
:101B4000C5F2000111430122CA500621E2E770B537
:101B50000D4604460160481C0BD00026284631463D
:101B600000F00AFB0220E9B201228A406260A6600E
:101B7000E06070BD0022C046C04670B515460E46F6
:101B80000446FFF7E4FF701C2CD02068411C0BD1E9
:101B900043F27C00C0F2000043F29401C0F2000165
:101BA000282200F0EFF920680121002D0A4600D11B
:101BB0002A4640F2C03340F2C0353C3586002E4004
:101BC0008008184044F60003C5F2000303439A510D
:101BD0002046FFF78DFF0021204670BC04BC9646CE
:101BE00000F001B870BD10B502460068431C09D072
:101BF000032908D3CB1E022B0BD2032921D10321A9
:101C0000002320E010BD946803210423E4B11946A9
:101C10001AE0062918D10621D1609268AAB940F2CB
:101C2000C03140F2C0323C328300134082080A4087
:101C300044F60001C5F2000111430122CA500621F9
:101C400003E0042101239360D16010BC04BC9646DC
:101C500000F0C3BAEFF31081EFF3108072B641F6D3
:101C6000C960C2F20000027802B170470122134637
:101C70008B4341F6D851C2F200010B7002707047DD
:101C800080B50120EFF31081014204D109A010A119
:101C9000352200F077F941F6C960C2F20000002158
:101CA000017041F6D850C2F20000007800B162B66F
:101CB00080BDC046216172655F696E746572727520
:101CC0007074735F656E61626C6564282900000042
:101CD0002E5C6D6265642D6F735C68616C5C6D6217
:101CE00065645F637269746963616C5F7365637473
:101CF000696F6E5F6170692E6300000010B540F27D
:101D00000014C4F2000459202060162020608820AE
:101D1000206020680028F6D0FEF7EDFE002020604D
:101D200010BC01BC86467046714672467346F44646
:101D30008EF30088744710B540F20014C4F200041A
:101D4000592020601620206088202060206800280C
:101D5000F6D0FEF7BEFE0020206010BC01BC864617
:101D60007046714672467346F4468EF30088744797
:101D7000F0B58BB015460646002803DB40F201168D
:101D8000C8F2FF0641F6E854C2F2000420780128A8
:101D900000D1FEE70091FFF7BBFC01202070FFF7A8
:101DA000F7FC41F6E050C2F200000768791C0160C0
:101DB00001A82821FEF72BFB7FB941F63060C2F263
:101DC000000006604560009981600C3001A98CC953
:101DD0008CC08CC98CC09CC99CC041F69460C2F276
:101DE000000006604560009981600C3001A91CC9A3
:101DF0001CC01CC91CC03CC93CC041F6E450C2F226
:101E00000000016821B141F69460C2F200008847E9
:101E1000002041F6E851C2F2000108700BB0F0BD9D
:101E2000F0B583B0044640683821415C11B93A21CD
:101E3000405C08B103B0F0BD2068006880470294A0
:101E40002068C06980470446056875B943F2D00030
:101E5000C0F2000043F2D201C0F200012C2200F0D7
:101E600091F844F24025C0F20F051F20C1B20126AF
:101E700032468A40954205D0401E0027FF21084285
:101E8000F4D100E007466168081F1D280BD343F218
:101E9000D000C0F2000043F2D201C0F200013A22A9
:101EA00000F070F820210191029948680022009208
:101EB0000260426008684068804702994C683B2194
:101EC00067543A22009FA754A762E7622062A56088
:101ED00030463946019AFEF7C2F9411E0198021FA9
:101EE00007209040E160206144F24022C0F20F02DE
:101EF00039463B46FEF7D4F928187941401EB941CE
:101F00002A463B46FEF7E4F9A061E1612763676377
:101F10002687029C204600F0ECFC204603B0F0BC73
:101F200002BC8E4600F0CCBB80B540F20000C1F28E
:101F30000100016881F38888406801218843F0B47A
:101F400044464D4656465F46F0B40121884301465B
:101F50000246034604460546064607468046814635
:101F600082468346844680F300888447F0BCA046BE
:101F7000A946B246BB46F0BC3F20000600F062FE18
:101F8000FAE7000070B514460D460646FFF7C0FBA1
:101F900005A031462A46234600F0A8F870BC01BCD3
:101FA000864600F01BB8C0466D626564206173739D
:101FB0006572746174696F6E206661696C65643AFC
:101FC0002025732C2066696C653A2025732C206CC3
:101FD000696E65202564200A00000000F0B587B016
:101FE000FFF796FB03A80A21FFF7C4FD002640F285
:101FF000C03744F60005C5F200050398411C0BD11B
:10200000282243F27C00C0F2000043F29401C0F2A7
:102010000001FFF7B7FF039840F2C0343C34810061
:1020200021408008384028430122019242509620E6
:1020300000F016FE0398411C0BD1282243F27C00CD
:10204000C0F2000043F29401C0F20001FFF79AFFD2
:1020500003988100214080083840284300220292E2
:102060004250962000F0FCFD761C042EC5D10427BA
:102070002E460398411C0BD1282243F27C00C0F26B
:10208000000043F29401C0F20001FFF77BFF0398C8
:1020900081002140800840F2C03528403043019A39
:1020A000425040F2901000F0DBFD0398411C0BD130
:1020B000282243F27C00C0F2000043F29401C0F2F7
:1020C0000001FFF75FFF039881002140800828404E
:1020D0003043029A425040F2901000F0C1FD7F1E42
:1020E0003546C5D1029E40F2C03786E7704770473B
:1020F0007047F0B581B041F6C860C2F200000178C7
:10210000C1BB0124047040F20017C4F2000759203B
:102110003860162038608820386038680028F6D08B
:102120000420FEF72AFB2046FEF727FB0825284659
:10213000FEF723FB02263046FEF71FFBA004FEF746
:102140001CFB1020FEF7D4FD2046FEF7D1FD2846EB
:10215000FEF7CEFD3046FEF7CBFD4020FEF7C8FD72
:1021600049F20000C0F2D030FEF7D7FCFFF720F8AC
:102170000020386001B0F0BD0AF0B6BFB0B50C4623
:102180000546401C0AD143F28100C0F2000043F230
:102190005A21C0F200015422FFF7F4FE68087C21A6
:1021A0000140680978220240501840F23001C4F220
:1021B00000014258AB001C251D400F23AB409A4341
:1021C00022434250B0BC01BC8646704671467246FE
:1021D0007346F4468EF300887447B0B50D46044646
:1021E000401C0AD143F28100C0F2000043F25A21A0
:1021F000C0F200012622FFF7C5FEEA1E032A10D80E
:10220000E0B201218140A00840F2C033034044F213
:102210000000C5F200001843B0BC08BC9E46FEF7A3
:1022200080BDB0BD70B582B004460320400741F6C2
:102230009466C2F2000631680A4602404D4282426C
:1022400000D08DB2080CC3B243F20C10C0F20000F3
:102250002A46FFF74BFF4FF6CF60CFF6FF702818E6
:1022600007282CD8810001A251188F4600F00EB823
:1022700000F00FB800F010B800F011B800F012B87C
:1022800000F013B800F014B800F015B8B16844A01D
:1022900013E0B1683EA010E0B16839A00DE0B1686C
:1022A00032A00AE0B1682CA007E0B16821A004E0E8
:1022B000B16824A001E0B16818A0FFF717FF20461D
:1022C000FFF714FF716843F2BF10C0F20000FFF780
:1022D0000DFFB16843F2AC10C0F20000FFF706FF3B
:1022E00033460C330ECBB069F4696D4611C543F229
:1022F0005D10C0F20000FFF7F9FE316843F2CF1025
:10230000C0F20000FFF7F2FE43F2F200C0F200005C
:1023100002B070BC02BC8E46FFF7E8BE4D65737319
:1023200061676551756575653A20307825582C20B0
:102330000000000054696D65723A20307825582CF1
:10234000200000004576656E74466C6167733A2024
:10235000307825582C2000004D656D6F7279506FD4
:102360006F6C3A20307825582C20000053656D6141
:1023700070686F72653A20307825582C2000000074
:102380004D757465783A20307825582C200000006F
:102390005468726561643A20307825582C2000001A
:1023A0004B65726E656C204572726F723A203078A0
:1023B00025582C200000000080B540F20100C7F233
:1023C00080200AF079FE80BC01BC864670467146CA
:1023D00072467346F4468EF30088744710B540F297
:1023E0000820C4F2000000680221084205D140F232
:1023F0000100C7F280200AF063FE41F20000C4F23F
:10240000040000680121084207D100242046FEF79D
:102410008CFD204621460AF07BFE10BC01BC86469E
:102420007046714672467346F4468EF300887447D0
:1024300080B540F20820C4F2000000680221084282
:1024400005D140F20100C7F280200AF039FE41F2C6
:102450000000C4F2040001680120084080BC02BCF6
:102460008E46714672467346F4468EF30088744772
:10247000F0B597B040F20820C4F2000000680221D5
:10248000084205D140F20100C7F280200AF018FE90
:102490000320C04341F20405C4F204052858012773
:1024A000384201D10AF028FE3E043C0741F6D060D4
:1024B000C2F200000178D9BB01940770642011902A
:1024C000002410940F97062012900E940D940C94F3
:1024D0000CA841F6CC61C2F200012246FFF7A4F835
:1024E0000028214668D041F20404C5F20404FDF737
:1024F000B3FE0199084203D020683042FCD002E0CC
:1025000028683042FCD0FEF720FCFDF7A5FE0199BB
:10251000084203D020683042FCD002E028683042F4
:10252000FCD0E86B41F6D461C2F200010860019C66
:10253000FDF792FE204207D041F20400C5F20400EC
:1025400001683142FCD002E028683042FCD003A888
:10255000FEF722FC05980F900698129007980E90AF
:102560004FF69401CFF6FF71039A51181191049917
:10257000491E10910A9921B90B99022901D10C30F9
:102580000E9008980D9009980C900CA802A90024B0
:102590002246FFF749F8002821460DD041F6D460C5
:1025A000C2F2000000680299081841F6CC61C2F23C
:1025B00000010968441A0021204617B0F0BC04BC91
:1025C000964672467346F4468EF300887447F0B51B
:1025D00081B0054640F20820C4F2000000680221E4
:1025E000084205D140F20100C7F280200AF068FDE0
:1025F00003200090C04341F20407C4F20407385896
:102600000124204201D10AF077FD41F6D460C2F2E4
:10261000000005602504240741F20406C5F2040603
:10262000FDF71AFE204203D030682842FCD002E0B9
:1026300038682842FCD0FEF788FBFDF70DFE2042EB
:1026400003D030682842FCD002E038682842FCD031
:1026500041F6D460C2F200000068F863FDF7FCFDAB
:10266000204203D030682842FCD002E0386828427B
:10267000FCD042F63850C0F20000FEF77BFC40F27E
:102680000820C4F20000416948F2000200980142AB
:1026900001D042F2107244F24021C0F20F01B1FBAE
:1026A000F2F1484300F0E1FA01B0F0BC01BC86460B
:1026B0007046714672467346F4468EF3008874473E
:1026C000F0B583B0044646683A20305C10B9392032
:1026D000305C08B103B0F0BD204600F00AF9626832
:1026E0005168C1B3156B0B68012700200195AB42FF
:1026F0003D4600D905460292526B4968914200D985
:102700000746914200D03D46002D7CD1002701981C
:102710001B1A01977F41029880690125009383422B
:10272000284600D801987F1E9141029AD2699142B1
:1027300000D8019D914200D02846029A15690028D0
:102740003ED11346926844F24020C0F20F0082420C
:102750000DD1009830E0306AF168326910180840F5
:102760002168096903B0F0BC04BC964608473B20C9
:102770001B5C44F23F27C0F20F075BB100981A467A
:10278000FDF76DFD0023C019594144F24022C0F20B
:102790000F020FE0002700983B46FDF781FD44F251
:1027A0003F22C0F20F028018794144F24022C0F269
:1027B0000F023B46FDF78CFD854200D30546029A89
:1027C000106A4019D5680540306A854208D111A0C9
:1027D00043F2D201C0F2000140F20712FFF7D2FB30
:1027E0002068016928468847206840688047316A28
:1027F0008D4202D9A84203D305E0A84200D269E77E
:10280000884200D366E72068406903B0F0BC02BC90
:102810008E4600476D617463685F7469636B202145
:102820003D2071756575652D3E7469636B5F6C61E4
:1028300073745F7265616400F0B581B00546FEF7A0
:1028400067FF2868C068804768683A21415C79BBA7
:102850003921012747544168393021B30097284670
:1028600000F047F82C466868026B41680D68002349
:1028700095423A4600D81A46466B4D68B54200D894
:102880001F46B54200D03A46002A25460AD1CA68FA
:10289000426003681BB18868984768684268002AEC
:1028A000009FDCD13930002101702846FFF708FF76
:1028B00001B0F0BC01BC8646FEF76ABF80B500F0EF
:1028C00001F880BD10B50446FFF7AAFAFEF720FF15
:1028D000204600F00EF8FEF75BFF6168086B496B5D
:1028E00010BD40F20800C4F205000121016000F0B3
:1028F00071B9F0B585B0044646683A20305C0028CE
:1029000000D07EE02068406880476168096A88429C
:1029100077D0316A3062401AB168F468044000250B
:1029200044F24020C0F20F00814264D0049144F28E
:102930004022C0F20F020027204639463B46FDF7F1
:10294000AFFC3B22B55C002D039026D001970F46CB
:102950002A46FDF794FC044602912A46FDF77FFCC7
:10296000039A101A019B1A465A41521E8F41B16AAE
:102970000918B162F06A7841F0620122049DA9420F
:102980001F4600D33A4600B13A4633462833002A60
:10299000029D30D10022049F24E000250F46049AB6
:1029A0002B46FDF795FC04460291049A2B46FDF751
:1029B00077FC039A101A2A466A41521E8F41B16A67
:1029C0004118B162F06A7841049FF0620122B94275
:1029D00000D32A4600B12A4633462833002A029DF6
:1029E00009D10022C91B196011465141491E90416D
:1029F0005860641C5541306B00193063706B68413E
:102A0000706305B0F0BD40F20800C4F2050001217A
:102A1000016070474EF28410CEF200000121016087
:102A2000BFF34F8FBFF36F8F70474EF20420CEF28B
:102A30000000012101604EF20410CEF2000001609E
:102A4000704780B54EF28410CEF200000121016083
:102A5000BFF34F8FBFF36F8F40F20200C5F6806067
:102A60000AF02AFB41F6D860C2F200000021018082
:102A700080BD43F2F420C0F200007047F0B583B08F
:102A800041F6D860C2F20000018851B14EF28410C4
:102A9000CEF2000001210160BFF34F8FBFF36F8FB3
:102AA00064E00126068040F20200C0F200400AF015
:102AB00013FB40F20204C5F680640022204640F277
:102AC00000210AF001FB20460AF0FAFA40F2000465
:102AD000C4F205042046FEF73FFC44F24025C0F254
:102AE0000F05B0FBF5F14F1E802F0BD3029020A0F5
:102AF000019143F29121C0F200016922FFF742FAED
:102B0000019902984D43401B07D028A043F2912120
:102B1000C0F200016A22FFF735FA0320C00607431E
:102B200027604FF6FF70C0F2FF0060604EF608505D
:102B3000CEF200000068C02142F6E302C0F20002BB
:102B400042504EF28410CEF200000660BFF34F8F69
:102B5000BFF36F8F7007216801432160B0072168C0
:102B600001432160700621680142FBD003B0F0BD33
:102B7000287072657363616C655F74696D6572203E
:102B8000213D202875696E7433325F7429202D3100
:102B900029202626207072657363616C655F7469F5
:102BA0006D6572203C3D20313237000028636C6B2C
:102BB0005F74696D65722025204E555F544D5243F8
:102BC0004C4B5F5045525F53454329203D3D2030DB
:102BD0000000000040F65850C2F20000016821B128
:102BE00043F2CC20C0F200000847704780B541F6A0
:102BF000D860C2F20000008808B9FFF73FFF40F23A
:102C00000C00C4F20500006880BD40F20402C4F26A
:102C10000502012151604EF28423CEF200031960B7
:102C20000223022800D818464FF6FF73C0F2FF03B4
:102C3000984200D3184610604EF20410CEF2000005
:102C40000160704780B542F20041C4F6741100F093
:102C50001BF8FDF7E1FB80BC02BC8E4600F005B816
:102C600040F2E8314843C046C04670B50446FEF71E
:102C70003AFF0546FFF722FE06462846FFF71EFEEE
:102C8000801BA042F9D370BD70B5420064414B0077
:102C90005C41120E39D01B0E38D0FF2A3CD0FF2BDE
:102CA0003AD0D2187F3A40024902400A490A4518F0
:102CB000ED0106004E43000A090A48430104731A55
:102CC0004019190C4318990F04D05B0801214907DA
:102CD0005B1A521CD80904D3401CF50301D19D0690
:102CE00007D0FF2A08D2D50506D0E40720434019B3
:102CF00070BD0125A843F4E7002A01DCE00770BDA0
:102D00002402FF202043C00570BD1B0EFF2A03D004
:102D1000FF2B01D0E00770BDFF2636064500B54207
:102D200006D84D00B54203D8D218FF2A00D0E7E7F5
:102D3000004870BD0000C07FD00700000100000007
:102D4000010000000600000000000000000000007C
:102D50000000000001000000000000000000000072
:102D600004000000080000000C000000000000004B
:102D7000040000000800000010000000010202042E
:102D8000D7000000890100006F0200001903000055
:102D900064050000E40700200400000000000000BB
:102DA000000001006C300000010000000400000081
:102DB0000000011000000700743000000100000056
:102DC00004000000903C80020002000006000000A9
:102DD00006FF430700200000FFFFFFFFFFFFFFFF8C
:102DE000004000000300000003000000000001009C
:102DF0001D000000010000000000000107000000AD
:102E000007000000000002000C0000000C000000A1
:102E100000000400FFFFFFFF0100807200000000BF
:102E20001C0000041CFE0340080000000700000412
:102E30000700004020000000FFFFFFFFFFFFFFFF33
:102E4000400000000C0000080C0000808000000022
:102E50001D0000041D000077000100001A0000049E
:102E60009A3C804200200000040000040400005F3F
:102E700000000200050000040500405F00000200A1
:102E80001000000810000080000000011100000880
:102E900011000080000000021200000812000080F3
:102EA0000000000413000008130000800000000868
:102EB0000D0000040D004066010000000E0000043B
:102EC0000E006066020000000F0000040E00606645
:102ED00004000000060000080600C0A6080000006C
:102EE000FFFFFFFFFFFFFFFF1000000007000008CB
:102EF0000700E0A62000000010000004103D8057ED
:102F00000000010011000004913DA05700000200E4
:102F100012000004123C8C7700000400130000042F
:102F2000933CAC770000080014000004143DCC77FB
:102F30000000100015000004953DEC770000200013
:102F4000080000040800004001000000090000041F
:102F500009000040020000000A0000040A000040CE
:102F6000040000000000000800FC07B6000001009B
:102F70000100000801FD27B6000002000200000861
:102F800002FE47B6000004001800000418000040CC
:102F9000010000001600000816000080000001007B
:102FA0001700000817000080000002001A00000847
:102FB0001A000080000010001B0000081B000080A9
:102FC0000000200017000004177F3452000080002A
:102FD000FFFFFFFFFFFFFFFF000000011F000004D5
:102FE00019000080000000021B0000049B3C80428E
:102FF0000100000008000008080000800000010037
:103000000900000809000080000002000000000024
:1030100080DE280080C84D0000A7760000349E00A6
:103020008012C700809FEE00007E1701805C400187
:1030300080E9670100C890010055B8010000000058
:1030400080DE2800001A4F0080F8770080859F00FE
:103050000064C80000F1EF0080CF180100AE41010C
:10306000003B69018019920180A6B90100000000AF
:103070000008000000000110000800006F626A2DC7
:103080003E70696E20213D202850696E4E616D654D
:10309000294E43002E5C6D6265642D6F735C746114
:1030A00072676574735C5441524745545F4E555680
:1030B0004F544F4E5C5441524745545F4D32333567
:1030C000312F6770696F5F6F626A6563742E680085
:1030D00030002E5C6D6265642D6F735C68616C5CA2
:1030E0006D6265645F7469636B65725F6170692EA0
:1030F00063000A2D2D204D6265644F532045727286
:103100006F7220496E666F202D2D0A000A0A2B2B44
:10311000204D6265644F53204572726F7220496E74
:10312000666F202B2B0A4572726F72205374617484
:1031300075733A203078255820436F64653A20250E
:1031400064204D6F64756C653A2025640A4572727F
:103150006F72204D6573736167653A20000A43758D
:103160007272656E74205468726561643A204964B5
:103170003A203078255820456E7472793A2030789C
:10318000255820537461636B53697A653A2030780F
:10319000255820537461636B4D656D3A2030782556
:1031A000582053503A203078255820000A45727232
:1031B0006F722056616C75653A2030782558000A88
:1031C0004C6F636174696F6E3A2030782558000A3D
:1031D000466F72206D6F726520696E666F2C207667
:1031E000697369743A2068747470733A2F2F61722E
:1031F0006D6D6265642E6769746875622E696F2FE4
:103200006D6265646F732D6572726F722F3F6572A8
:10321000726F723D307825303858004E6F6E2D73C6
:10322000656375726520646F6D61696E2074726983
:10323000657320746F20636F6E74726F6C2073659A
:1032400063757265206F7220756E646566696E6560
:1032500064206D6F64756C652E002E5C6D62656414
:103260002D6F735C746172676574735C544152476F
:1032700045545F4E55564F544F4E5C54415247454E
:10328000545F4D323335315C70696E6D61702E6301
:10329000002E5C6D6265642D6F735C74617267658E
:1032A00074735C5441524745545F4E55564F544FCA
:1032B0004E5C5441524745545F4D323335315C7555
:1032C000735F7469636B65722E630000D432000013
:1032D000F01D00207D2A0000ED2B0000152A0000C3
:1032E000072A00000B2C00002B2A0000432A0000B4
:1032F000732A000040420F00180000001C33000039
:10330000E00700209805000066040000F835000082
:10331000780D0020641100001C020000101D300018
:10332000000085B00A460346039002A8017001928E
:103330000093FFE74CF2C000C4F21B100B680121A0
:10334000084201D0FFE7F514320014300C01684048
:1033500022114301604CF20C10100B22210160037A
:10336000984CF204010E501501086002A800780084
:103370002808D1FFE70020C0434CF208181309E0E9
:103380000C3132200B4AF60321C0F2550101606A6C
:10339000421056114600051CBFF36F8F7C100400CD
:1033A000684090120B14E18E10080120049002E096
:1033B0000006201DFFE7049805B07047B0B587B040
:1033C00013460C46054605900491039240F2001006
:1033D0007E12596A12166E1288B841E010080293E4
:1033E0000194009503B210070120069038E02A42AC
:1033F000205C3204EA500440F2041021F83006FF49
:10340000E740F2502024040068101EC6D11E560169
:103410001E321CF8120A646310425CE30AE0B81220
:10342000007204111EFFE7069807B0B0BD82B0011C
:10343000460190009180400401229162452811D0FC
:103440001004084602F2072C81B0BA16260615B8F9
:10345000714696C8AE054898360098160098100434
:10346000009801A6100480B584E8100A0290029822
:103470004FF6FF72CE044310400E70040002CF0ED0
:1034800014100F22120510400122520590420191A2
:103490000B64170298C2101501CFF6E071401801B5
:1034A00021FFF7A4FE039005E00298000C129E0C89
:1034B000380CFFE7039804B080BD80B586D048097A
:1034C0000490039100200290D22809029803998861
:1034D000420FD21E101202994A1C029289004058D3
:1034E000FFF7B8FF002803B818080120059003E093
:1034F000EBB416059010040598064A5804B0B58838
:103500004220120690059104920598C01C03218860
:1035100043059006BC1271BC0C0C2C71084006903F
:103520000393029401953603162170216814040058
:10353000283F369E064003040752049800F03CF8EA
:103540008A100B07900CE00698001D06906410048A
:103550001D04907E1C051F0590BCA8031A07841843
:10356000040798088456839C164222700400780150
:103570000A90070002019A101810D2041042062087
:103580003C0601980091037E0305163C05322E7619
:10359000002E36532E857E85386D5E0429CA054679
:1035A000341D98037F901DB8042811006804990009
:1035B000900846FFF76CFF009981423821220512DE
:1035C0005632A81A655642000110056CDC02FF0154
:1035D00021080021003928000030B54D4620B445AF
:1035E0006903699946C368826841680068A84720F2
:0835F000BCA94630BD0000003B
:10D000007FE97FE9F4F714BA7FE97FE9F4F733BAEF
:10D010007FE97FE9F4F75ABA7FE97FE9F4F790BA3C
:10D020007FE97FE9F4F7B2BA7FE97FE9F4F7F7BB6C
:10D030007FE97FE9F4F758BC7FE97FE9F4F75CBC4E
:10D040007FE97FE9F4F766BC7FE97FE9F4F7A0BCEC
:10D050007FE97FE9F4F7AABC7FE97FE9F4F7B4BC84
:10D060007FE97FE9F4F7BEBC7FE97FE9F3F78EBB88
:10D070007FE97FE9F3F716BC7FE97FE9F3F724BC8A
:10D080007FE97FE9F3F734BC7FE97FE9F3F740BC40
:10D090007FE97FE9F3F75CBC7FE97FE9F3F7AFBC99
:10D0A0007FE97FE9F3F7C5BC7FE97FE9F3F7DCBCF3
:10D0B0007FE97FE9F4F725B87FE97FE9F3F724BA40
:10D0C0007FE97FE9F3F75DBA7FE97FE9F3F7DEBD3A
:10D0D0007FE97FE9F4F707B87FE97FE9F4F728B83B
:10D0E0007FE97FE9F4F74FB87FE97FE9F5F746B8C4
:10D0F0007FE97FE9F5F760B97FE97FE9F5F76EB978
:10D100007FE97FE9F5F794B97FE97FE9F5F7B0B9F1
:10D110007FE97FE9F5F75BBA7FE97FE9F4F7EEBDD8
:10D120007FE97FE9F4F707BE00000000000000007F
:10D1300000000000000000000000000000000000EF
:10D14000FFFFFFFFFFFFFFFFFFFFFFFFFFFFFFFFEF
:10D15000FFFFFFFFFFFFFFFFFFFFFFFFFFFFFFFFDF
:10D16000FFFFFFFFFFFFFFFFFFFFFFFFFFFFFFFFCF
:00000001FF
